8=FIXT.1.1|9=71|35=A|34=1|49=NOM|52=20190728-10:16:40.076|56=TARGET|98=0|108=30|1137=7|10=068|